{
    "abi": [
        {
            "inputs": [
                {
                    "internalType": "address",
                    "name": "_poolAddress",
                    "type": "address"
                },
                {
                    "internalType": "int24",
                    "name": "lowerTick",
                    "type": "int24"
                },
                {
                    "internalType": "int24",
                    "name": "upperTick",
                    "type": "int24"
                },
                {
                    "internalType": "uint128",
                    "name": "liquidity",
                    "type": "uint128"
                },
                {
                    "internalType": "bytes",
                    "name": "data",
                    "type": "bytes"
                }
            ],
            "name": "mint",
            "outputs": [
                {
                    "internalType": "uint256",
                    "name": "",
                    "type": "uint256"
                },
                {
                    "internalType": "uint256",
                    "name": "",
                    "type": "uint256"
                }
            ],
            "stateMutability": "nonpayable",
            "type": "function"
        },
        {
            "inputs": [
                {
                    "internalType": "address",
                    "name": "_poolAddress",
                    "type": "address"
                },
                {
                    "internalType": "bytes",
                    "name": "data",
                    "type": "bytes"
                }
            ],
            "name": "swap",
            "outputs": [
                {
                    "internalType": "int256",
                    "name": "",
                    "type": "int256"
                },
                {
                    "internalType": "int256",
                    "name": "",
                    "type": "int256"
                }
            ],
            "stateMutability": "nonpayable",
            "type": "function"
        },
        {
            "inputs": [
                {
                    "internalType": "uint256",
                    "name": "amount0",
                    "type": "uint256"
                },
                {
                    "internalType": "uint256",
                    "name": "amount1",
                    "type": "uint256"
                },
                {
                    "internalType": "bytes",
                    "name": "data",
                    "type": "bytes"
                }
            ],
            "name": "uniswapV3MintCallback",
            "outputs": [],
            "stateMutability": "nonpayable",
            "type": "function"
        },
        {
            "inputs": [
                {
                    "internalType": "int256",
                    "name": "amount0",
                    "type": "int256"
                },
                {
                    "internalType": "int256",
                    "name": "amount1",
                    "type": "int256"
                },
                {
                    "internalType": "bytes",
                    "name": "data",
                    "type": "bytes"
                }
            ],
            "name": "uniswapV3SwapCallback",
            "outputs": [],
            "stateMutability": "nonpayable",
            "type": "function"
        }
    ],
    "bytecode": {
        "object": "0x608060405234801561001057600080fd5b506106c6806100206000396000f3fe608060405234801561001057600080fd5b506004361061004c5760003560e01c80633c8a7d8d14610051578063d34879971461007d578063e354733514610092578063fa461e33146100a5575b600080fd5b61006461005f3660046103ee565b6100b8565b6040805192835260208301919091520160405180910390f35b61009061008b366004610482565b610142565b005b6100646100a03660046104d5565b61022c565b6100906100b3366004610482565b6102ad565b600080876001600160a01b0316633c8a7d8d3389898989896040518763ffffffff1660e01b81526004016100f196959493929190610551565b60408051808303816000875af115801561010f573d6000803e3d6000fd5b505050506040513d601f19601f8201168201806040525081019061013391906105a0565b91509150965096945050505050565b6000610150828401846105c4565b805160408083015190516323b872dd60e01b81529293506001600160a01b03909116916323b872dd916101899133908a9060040161063e565b600060405180830381600087803b1580156101a357600080fd5b505af11580156101b7573d6000803e3d6000fd5b5050505080602001516001600160a01b03166323b872dd826040015133876040518463ffffffff1660e01b81526004016101f39392919061063e565b600060405180830381600087803b15801561020d57600080fd5b505af1158015610221573d6000803e3d6000fd5b505050505050505050565b600080846001600160a01b031663e35473353386866040518463ffffffff1660e01b815260040161025f93929190610662565b60408051808303816000875af115801561027d573d6000803e3d6000fd5b505050506040513d601f19601f820116820180604052508101906102a191906105a0565b91509150935093915050565b60006102bb828401846105c4565b9050600085131561032f57805160408083015190516323b872dd60e01b81526001600160a01b03909216916323b872dd916102fc9133908a9060040161063e565b600060405180830381600087803b15801561031657600080fd5b505af115801561032a573d6000803e3d6000fd5b505050505b60008413156103705780602001516001600160a01b03166323b872dd826040015133876040518463ffffffff1660e01b81526004016101f39392919061063e565b5050505050565b80356001600160a01b038116811461038e57600080fd5b919050565b8035600281900b811461038e57600080fd5b60008083601f8401126103b757600080fd5b50813567ffffffffffffffff8111156103cf57600080fd5b6020830191508360208285010111156103e757600080fd5b9250929050565b60008060008060008060a0878903121561040757600080fd5b61041087610377565b955061041e60208801610393565b945061042c60408801610393565b935060608701356001600160801b038116811461044857600080fd5b9250608087013567ffffffffffffffff81111561046457600080fd5b61047089828a016103a5565b979a9699509497509295939492505050565b6000806000806060858703121561049857600080fd5b8435935060208501359250604085013567ffffffffffffffff8111156104bd57600080fd5b6104c9878288016103a5565b95989497509550505050565b6000806000604084860312156104ea57600080fd5b6104f384610377565b9250602084013567ffffffffffffffff81111561050f57600080fd5b61051b868287016103a5565b9497909650939450505050565b81835281816020850137506000828201602090810191909152601f909101601f19169091010190565b60018060a01b03871681528560020b60208201528460020b60408201526001600160801b038416606082015260a06080820152600061059460a083018486610528565b98975050505050505050565b600080604083850312156105b357600080fd5b505080516020909101519092909150565b6000606082840312156105d657600080fd5b6040516060810181811067ffffffffffffffff8211171561060757634e487b7160e01b600052604160045260246000fd5b60405261061383610377565b815261062160208401610377565b602082015261063260408401610377565b60408201529392505050565b6001600160a01b039384168152919092166020820152604081019190915260600190565b6001600160a01b03841681526040602082018190526000906106879083018486610528565b9594505050505056fea264697066735822122057120aebdc40fc545dcdfcf1845cd2493034c6821cfe4337f27a0693f958a1bc64736f6c63430008120033",
        "linkReferences": {}
    },
    "methodIdentifiers": {
        "mint(address,int24,int24,uint128,bytes)": "3c8a7d8d",
        "swap(address,bytes)": "e3547335",
        "uniswapV3MintCallback(uint256,uint256,bytes)": "d3487997",
        "uniswapV3SwapCallback(int256,int256,bytes)": "fa461e33"
    },
    "id": 16
}