{
    "abi": [
        {
            "inputs": [
                {
                    "internalType": "address",
                    "name": "_token0",
                    "type": "address"
                },
                {
                    "internalType": "address",
                    "name": "_token1",
                    "type": "address"
                },
                {
                    "internalType": "uint160",
                    "name": "sqrtPriceX96",
                    "type": "uint160"
                },
                {
                    "internalType": "int24",
                    "name": "tick",
                    "type": "int24"
                }
            ],
            "stateMutability": "nonpayable",
            "type": "constructor"
        },
        {
            "inputs": [],
            "name": "InsufficientInputAmount",
            "type": "error"
        },
        {
            "inputs": [],
            "name": "InvalidTickRange",
            "type": "error"
        },
        {
            "inputs": [],
            "name": "ZeroLiquidity",
            "type": "error"
        },
        {
            "anonymous": false,
            "inputs": [
                {
                    "indexed": false,
                    "internalType": "address",
                    "name": "sender",
                    "type": "address"
                },
                {
                    "indexed": true,
                    "internalType": "address",
                    "name": "owner",
                    "type": "address"
                },
                {
                    "indexed": true,
                    "internalType": "int24",
                    "name": "tickLower",
                    "type": "int24"
                },
                {
                    "indexed": true,
                    "internalType": "int24",
                    "name": "tickUpper",
                    "type": "int24"
                },
                {
                    "indexed": false,
                    "internalType": "uint128",
                    "name": "amount",
                    "type": "uint128"
                },
                {
                    "indexed": false,
                    "internalType": "uint256",
                    "name": "amount0",
                    "type": "uint256"
                },
                {
                    "indexed": false,
                    "internalType": "uint256",
                    "name": "amount1",
                    "type": "uint256"
                }
            ],
            "name": "Mint",
            "type": "event"
        },
        {
            "anonymous": false,
            "inputs": [
                {
                    "indexed": true,
                    "internalType": "address",
                    "name": "sender",
                    "type": "address"
                },
                {
                    "indexed": true,
                    "internalType": "address",
                    "name": "recipient",
                    "type": "address"
                },
                {
                    "indexed": false,
                    "internalType": "int256",
                    "name": "amount0",
                    "type": "int256"
                },
                {
                    "indexed": false,
                    "internalType": "int256",
                    "name": "amount1",
                    "type": "int256"
                },
                {
                    "indexed": false,
                    "internalType": "uint160",
                    "name": "sqrtPriceX96",
                    "type": "uint160"
                },
                {
                    "indexed": false,
                    "internalType": "uint128",
                    "name": "liquidity",
                    "type": "uint128"
                },
                {
                    "indexed": false,
                    "internalType": "int24",
                    "name": "tick",
                    "type": "int24"
                }
            ],
            "name": "Swap",
            "type": "event"
        },
        {
            "inputs": [],
            "name": "liquidity",
            "outputs": [
                {
                    "internalType": "uint128",
                    "name": "",
                    "type": "uint128"
                }
            ],
            "stateMutability": "view",
            "type": "function"
        },
        {
            "inputs": [
                {
                    "internalType": "address",
                    "name": "owner",
                    "type": "address"
                },
                {
                    "internalType": "int24",
                    "name": "lowerTick",
                    "type": "int24"
                },
                {
                    "internalType": "int24",
                    "name": "upperTick",
                    "type": "int24"
                },
                {
                    "internalType": "uint128",
                    "name": "amount",
                    "type": "uint128"
                },
                {
                    "internalType": "bytes",
                    "name": "data",
                    "type": "bytes"
                }
            ],
            "name": "mint",
            "outputs": [
                {
                    "internalType": "uint256",
                    "name": "amount0",
                    "type": "uint256"
                },
                {
                    "internalType": "uint256",
                    "name": "amount1",
                    "type": "uint256"
                }
            ],
            "stateMutability": "nonpayable",
            "type": "function"
        },
        {
            "inputs": [
                {
                    "internalType": "bytes32",
                    "name": "",
                    "type": "bytes32"
                }
            ],
            "name": "positions",
            "outputs": [
                {
                    "internalType": "uint128",
                    "name": "liquidity",
                    "type": "uint128"
                }
            ],
            "stateMutability": "view",
            "type": "function"
        },
        {
            "inputs": [],
            "name": "slot0",
            "outputs": [
                {
                    "internalType": "uint160",
                    "name": "sqrtPriceX96",
                    "type": "uint160"
                },
                {
                    "internalType": "int24",
                    "name": "tick",
                    "type": "int24"
                }
            ],
            "stateMutability": "view",
            "type": "function"
        },
        {
            "inputs": [
                {
                    "internalType": "address",
                    "name": "recipient",
                    "type": "address"
                },
                {
                    "internalType": "bytes",
                    "name": "data",
                    "type": "bytes"
                }
            ],
            "name": "swap",
            "outputs": [
                {
                    "internalType": "int256",
                    "name": "amount0",
                    "type": "int256"
                },
                {
                    "internalType": "int256",
                    "name": "amount1",
                    "type": "int256"
                }
            ],
            "stateMutability": "nonpayable",
            "type": "function"
        },
        {
            "inputs": [
                {
                    "internalType": "int24",
                    "name": "",
                    "type": "int24"
                }
            ],
            "name": "ticks",
            "outputs": [
                {
                    "internalType": "bool",
                    "name": "initialized",
                    "type": "bool"
                },
                {
                    "internalType": "uint128",
                    "name": "liquidity",
                    "type": "uint128"
                }
            ],
            "stateMutability": "view",
            "type": "function"
        },
        {
            "inputs": [],
            "name": "token0",
            "outputs": [
                {
                    "internalType": "address",
                    "name": "",
                    "type": "address"
                }
            ],
            "stateMutability": "view",
            "type": "function"
        },
        {
            "inputs": [],
            "name": "token1",
            "outputs": [
                {
                    "internalType": "address",
                    "name": "",
                    "type": "address"
                }
            ],
            "stateMutability": "view",
            "type": "function"
        }
    ],
    "bytecode": {
        "object": "0x60c060405234801561001057600080fd5b50604051610c90380380610c9083398101604081905261002f916100a0565b6001600160a01b0393841660805291831660a052604080518082019091529216808352600282900b6020909301929092526000805462ffffff909216600160a01b026001600160b81b0319909216909217179055610106565b6001600160a01b038116811461009d57600080fd5b50565b600080600080608085870312156100b657600080fd5b84516100c181610088565b60208601519094506100d281610088565b60408601519093506100e381610088565b8092505060608501518060020b81146100fb57600080fd5b939692955090935050565b60805160a051610b5161013f60003960008181610193015261084b01526000818160920152818161053901526107b80152610b516000f3fe608060405234801561001057600080fd5b50600436106100885760003560e01c8063514ea4bf1161005b578063514ea4bf14610165578063d21220a71461018e578063e3547335146101b5578063f30dba93146101c857600080fd5b80630dfe16811461008d5780631a686502146100d15780633850c7bd146100fc5780633c8a7d8d1461013d575b600080fd5b6100b47f000000000000000000000000000000000000000000000000000000000000000081565b6040516001600160a01b0390911681526020015b60405180910390f35b6001546100e4906001600160801b031681565b6040516001600160801b0390911681526020016100c8565b60005461011b906001600160a01b03811690600160a01b900460020b82565b604080516001600160a01b03909316835260029190910b6020830152016100c8565b61015061014b3660046108f9565b61021a565b604080519283526020830191909152016100c8565b6100e461017336600461098d565b6003602052600090815260409020546001600160801b031681565b6100b47f000000000000000000000000000000000000000000000000000000000000000081565b6101506101c33660046109a6565b6104e1565b6101fb6101d63660046109f9565b60026020526000908152604090205460ff81169061010090046001600160801b031682565b6040805192151583526001600160801b039091166020830152016100c8565b6000808560020b8760020b1215806102395750620d89e719600288900b125b80610255575061024c620d89e719610a31565b60020b8660020b135b15610272576040516264847d60e41b815260040160405180910390fd5b846001600160801b031660000361029c57604051630200e8a960e31b815260040160405180910390fd5b6102a8600288876106de565b6102b4600287876106de565b6040805160608a901b6bffffffffffffffffffffffff191660208083019190915260e88a811b603484015289901b60378301528251601a818403018152603a90920183528151918101919091206000908152600390915220610316818761075f565b60018054670ddd13f10b84ee00945069010f0cf064dd59200000935087919060009061034c9084906001600160801b0316610a53565b92506101000a8154816001600160801b0302191690836001600160801b031602179055506000806000851115610387576103846107a0565b91505b831561039857610395610833565b90505b60405163d348799760e01b8152339063d3487997906103c190889088908c908c90600401610aa3565b600060405180830381600087803b1580156103db57600080fd5b505af11580156103ef573d6000803e3d6000fd5b5050505060008511801561041257506104066107a0565b6104108684610acd565b115b156104305760405163098fb56160e01b815260040160405180910390fd5b60008411801561044f5750610443610833565b61044d8583610acd565b115b1561046d5760405163098fb56160e01b815260040160405180910390fd5b604080513381526001600160801b038a1660208201529081018690526060810185905260028a810b91908c900b906001600160a01b038e16907f7a53080ba414158be7ec69b987b5fb7d07dee101fe85488f0853ae16239d0bde9060800160405180910390a4505050965096945050505050565b600080546001600160b81b03191676014cc00000000000000046bd046408013d67ed5d406b2d179055661dd4c461af3f0b19680246ddf9797668000062014cc06c46bd046408013d67ed5d406b2d6001600160a01b037f00000000000000000000000000000000000000000000000000000000000000001663a9059cbb8861056887610ae6565b6040516001600160e01b031960e085901b1681526001600160a01b0390921660048301526024820152604401600060405180830381600087803b1580156105ae57600080fd5b505af11580156105c2573d6000803e3d6000fd5b5050505060006105d0610833565b60405163fa461e3360e01b8152909150339063fa461e33906105fc90889088908c908c90600401610aa3565b600060405180830381600087803b15801561061657600080fd5b505af115801561062a573d6000803e3d6000fd5b50505050610636610833565b6106408583610acd565b111561065f5760405163098fb56160e01b815260040160405180910390fd5b60005460015460408051888152602081018890526001600160a01b03808516828401526001600160801b039093166060820152600160a01b90930460020b608084015251908a169133917fc42079f94a6350d7e6235f29174924f928cc2ac818eb64fed8004e115fbcca679181900360a00190a3505050935093915050565b600282900b6000908152602084905260408120805490916101009091046001600160801b03169061070f8483610a53565b9050816001600160801b031660000361072e57825460ff191660011783555b82546001600160801b039091166101000270ffffffffffffffffffffffffffffffff00199091161790915550505050565b81546001600160801b031660006107768383610a53565b84546fffffffffffffffffffffffffffffffff19166001600160801b039190911617909355505050565b6040516370a0823160e01b81523060048201526000907f00000000000000000000000000000000000000000000000000000000000000006001600160a01b0316906370a08231906024015b6020604051808303816000875af115801561080a573d6000803e3d6000fd5b505050506040513d601f19601f8201168201806040525081019061082e9190610b02565b905090565b6040516370a0823160e01b81523060048201526000907f00000000000000000000000000000000000000000000000000000000000000006001600160a01b0316906370a08231906024016107eb565b80356001600160a01b038116811461089957600080fd5b919050565b8035600281900b811461089957600080fd5b60008083601f8401126108c257600080fd5b50813567ffffffffffffffff8111156108da57600080fd5b6020830191508360208285010111156108f257600080fd5b9250929050565b60008060008060008060a0878903121561091257600080fd5b61091b87610882565b95506109296020880161089e565b94506109376040880161089e565b935060608701356001600160801b038116811461095357600080fd5b9250608087013567ffffffffffffffff81111561096f57600080fd5b61097b89828a016108b0565b979a9699509497509295939492505050565b60006020828403121561099f57600080fd5b5035919050565b6000806000604084860312156109bb57600080fd5b6109c484610882565b9250602084013567ffffffffffffffff8111156109e057600080fd5b6109ec868287016108b0565b9497909650939450505050565b600060208284031215610a0b57600080fd5b610a148261089e565b9392505050565b634e487b7160e01b600052601160045260246000fd5b60008160020b627fffff198103610a4a57610a4a610a1b565b60000392915050565b6001600160801b03818116838216019080821115610a7357610a73610a1b565b5092915050565b81835281816020850137506000828201602090810191909152601f909101601f19169091010190565b848152836020820152606060408201526000610ac3606083018486610a7a565b9695505050505050565b80820180821115610ae057610ae0610a1b565b92915050565b6000600160ff1b8201610afb57610afb610a1b565b5060000390565b600060208284031215610b1457600080fd5b505191905056fea2646970667358221220b7d7d6c68065bf8516c738c02f27e94fd87c8460c76f10fc86f3f83495b5047564736f6c63430008120033",
        "linkReferences": {}
    },
    "methodIdentifiers": {
        "liquidity()": "1a686502",
        "mint(address,int24,int24,uint128,bytes)": "3c8a7d8d",
        "positions(bytes32)": "514ea4bf",
        "slot0()": "3850c7bd",
        "swap(address,bytes)": "e3547335",
        "ticks(int24)": "f30dba93",
        "token0()": "0dfe1681",
        "token1()": "d21220a7"
    },
    "id": 16
}